{
  "_format": "hh-sol-artifact-1",
  "contractName": "Event",
  "sourceName": "contracts/Event.sol",
  "abi": [
    {
      "inputs": [],
      "stateMutability": "nonpayable",
      "type": "constructor"
    },
    {
      "anonymous": false,
      "inputs": [
        {
          "indexed": true,
          "internalType": "address",
          "name": "owner",
          "type": "address"
        },
        {
          "indexed": true,
          "internalType": "address",
          "name": "approved",
          "type": "address"
        },
        {
          "indexed": true,
          "internalType": "uint256",
          "name": "tokenId",
          "type": "uint256"
        }
      ],
      "name": "Approval",
      "type": "event"
    },
    {
      "anonymous": false,
      "inputs": [
        {
          "indexed": true,
          "internalType": "address",
          "name": "owner",
          "type": "address"
        },
        {
          "indexed": true,
          "internalType": "address",
          "name": "operator",
          "type": "address"
        },
        {
          "indexed": false,
          "internalType": "bool",
          "name": "approved",
          "type": "bool"
        }
      ],
      "name": "ApprovalForAll",
      "type": "event"
    },
    {
      "anonymous": false,
      "inputs": [
        {
          "indexed": false,
          "internalType": "uint256",
          "name": "eventId",
          "type": "uint256"
        }
      ],
      "name": "EventCancelled",
      "type": "event"
    },
    {
      "anonymous": false,
      "inputs": [
        {
          "components": [
            {
              "internalType": "uint256",
              "name": "startDate",
              "type": "uint256"
            },
            {
              "internalType": "uint256",
              "name": "endDate",
              "type": "uint256"
            },
            {
              "internalType": "address[]",
              "name": "invites",
              "type": "address[]"
            },
            {
              "internalType": "string",
              "name": "description",
              "type": "string"
            },
            {
              "internalType": "address",
              "name": "organizer",
              "type": "address"
            },
            {
              "internalType": "uint256",
              "name": "eventId",
              "type": "uint256"
            }
          ],
          "indexed": false,
          "internalType": "struct Event.EventData",
          "name": "eventData",
          "type": "tuple"
        }
      ],
      "name": "EventCreated",
      "type": "event"
    },
    {
      "anonymous": false,
      "inputs": [
        {
          "indexed": true,
          "internalType": "address",
          "name": "previousOwner",
          "type": "address"
        },
        {
          "indexed": true,
          "internalType": "address",
          "name": "newOwner",
          "type": "address"
        }
      ],
      "name": "OwnershipTransferred",
      "type": "event"
    },
    {
      "anonymous": false,
      "inputs": [
        {
          "indexed": true,
          "internalType": "address",
          "name": "from",
          "type": "address"
        },
        {
          "indexed": true,
          "internalType": "address",
          "name": "to",
          "type": "address"
        },
        {
          "indexed": true,
          "internalType": "uint256",
          "name": "tokenId",
          "type": "uint256"
        }
      ],
      "name": "Transfer",
      "type": "event"
    },
    {
      "inputs": [
        {
          "internalType": "address",
          "name": "to",
          "type": "address"
        },
        {
          "internalType": "uint256",
          "name": "tokenId",
          "type": "uint256"
        }
      ],
      "name": "approve",
      "outputs": [],
      "stateMutability": "nonpayable",
      "type": "function"
    },
    {
      "inputs": [
        {
          "internalType": "address",
          "name": "owner",
          "type": "address"
        }
      ],
      "name": "balanceOf",
      "outputs": [
        {
          "internalType": "uint256",
          "name": "",
          "type": "uint256"
        }
      ],
      "stateMutability": "view",
      "type": "function"
    },
    {
      "inputs": [
        {
          "internalType": "uint256",
          "name": "eventId",
          "type": "uint256"
        }
      ],
      "name": "cancelEvent",
      "outputs": [
        {
          "internalType": "bool",
          "name": "",
          "type": "bool"
        }
      ],
      "stateMutability": "nonpayable",
      "type": "function"
    },
    {
      "inputs": [
        {
          "internalType": "uint256",
          "name": "startDate",
          "type": "uint256"
        },
        {
          "internalType": "uint256",
          "name": "endDate",
          "type": "uint256"
        },
        {
          "internalType": "address[]",
          "name": "invites",
          "type": "address[]"
        },
        {
          "internalType": "string",
          "name": "description",
          "type": "string"
        },
        {
          "internalType": "address",
          "name": "organizer",
          "type": "address"
        }
      ],
      "name": "createEvent",
      "outputs": [
        {
          "internalType": "uint256",
          "name": "",
          "type": "uint256"
        }
      ],
      "stateMutability": "nonpayable",
      "type": "function"
    },
    {
      "inputs": [
        {
          "internalType": "uint256",
          "name": "",
          "type": "uint256"
        }
      ],
      "name": "eventsData",
      "outputs": [
        {
          "internalType": "uint256",
          "name": "startDate",
          "type": "uint256"
        },
        {
          "internalType": "uint256",
          "name": "endDate",
          "type": "uint256"
        },
        {
          "internalType": "string",
          "name": "description",
          "type": "string"
        },
        {
          "internalType": "address",
          "name": "organizer",
          "type": "address"
        },
        {
          "internalType": "uint256",
          "name": "eventId",
          "type": "uint256"
        }
      ],
      "stateMutability": "view",
      "type": "function"
    },
    {
      "inputs": [],
      "name": "getAllEvents",
      "outputs": [
        {
          "components": [
            {
              "internalType": "uint256",
              "name": "startDate",
              "type": "uint256"
            },
            {
              "internalType": "uint256",
              "name": "endDate",
              "type": "uint256"
            },
            {
              "internalType": "address[]",
              "name": "invites",
              "type": "address[]"
            },
            {
              "internalType": "string",
              "name": "description",
              "type": "string"
            },
            {
              "internalType": "address",
              "name": "organizer",
              "type": "address"
            },
            {
              "internalType": "uint256",
              "name": "eventId",
              "type": "uint256"
            }
          ],
          "internalType": "struct Event.EventData[]",
          "name": "",
          "type": "tuple[]"
        }
      ],
      "stateMutability": "view",
      "type": "function"
    },
    {
      "inputs": [
        {
          "internalType": "uint256",
          "name": "tokenId",
          "type": "uint256"
        }
      ],
      "name": "getApproved",
      "outputs": [
        {
          "internalType": "address",
          "name": "",
          "type": "address"
        }
      ],
      "stateMutability": "view",
      "type": "function"
    },
    {
      "inputs": [
        {
          "internalType": "uint256",
          "name": "id",
          "type": "uint256"
        }
      ],
      "name": "getEventData",
      "outputs": [
        {
          "components": [
            {
              "internalType": "uint256",
              "name": "startDate",
              "type": "uint256"
            },
            {
              "internalType": "uint256",
              "name": "endDate",
              "type": "uint256"
            },
            {
              "internalType": "address[]",
              "name": "invites",
              "type": "address[]"
            },
            {
              "internalType": "string",
              "name": "description",
              "type": "string"
            },
            {
              "internalType": "address",
              "name": "organizer",
              "type": "address"
            },
            {
              "internalType": "uint256",
              "name": "eventId",
              "type": "uint256"
            }
          ],
          "internalType": "struct Event.EventData",
          "name": "",
          "type": "tuple"
        }
      ],
      "stateMutability": "view",
      "type": "function"
    },
    {
      "inputs": [
        {
          "internalType": "address",
          "name": "owner",
          "type": "address"
        },
        {
          "internalType": "address",
          "name": "operator",
          "type": "address"
        }
      ],
      "name": "isApprovedForAll",
      "outputs": [
        {
          "internalType": "bool",
          "name": "",
          "type": "bool"
        }
      ],
      "stateMutability": "view",
      "type": "function"
    },
    {
      "inputs": [],
      "name": "name",
      "outputs": [
        {
          "internalType": "string",
          "name": "",
          "type": "string"
        }
      ],
      "stateMutability": "view",
      "type": "function"
    },
    {
      "inputs": [],
      "name": "owner",
      "outputs": [
        {
          "internalType": "address",
          "name": "",
          "type": "address"
        }
      ],
      "stateMutability": "view",
      "type": "function"
    },
    {
      "inputs": [
        {
          "internalType": "uint256",
          "name": "tokenId",
          "type": "uint256"
        }
      ],
      "name": "ownerOf",
      "outputs": [
        {
          "internalType": "address",
          "name": "",
          "type": "address"
        }
      ],
      "stateMutability": "view",
      "type": "function"
    },
    {
      "inputs": [],
      "name": "renounceOwnership",
      "outputs": [],
      "stateMutability": "nonpayable",
      "type": "function"
    },
    {
      "inputs": [
        {
          "internalType": "address",
          "name": "from",
          "type": "address"
        },
        {
          "internalType": "address",
          "name": "to",
          "type": "address"
        },
        {
          "internalType": "uint256",
          "name": "tokenId",
          "type": "uint256"
        }
      ],
      "name": "safeTransferFrom",
      "outputs": [],
      "stateMutability": "nonpayable",
      "type": "function"
    },
    {
      "inputs": [
        {
          "internalType": "address",
          "name": "from",
          "type": "address"
        },
        {
          "internalType": "address",
          "name": "to",
          "type": "address"
        },
        {
          "internalType": "uint256",
          "name": "tokenId",
          "type": "uint256"
        },
        {
          "internalType": "bytes",
          "name": "_data",
          "type": "bytes"
        }
      ],
      "name": "safeTransferFrom",
      "outputs": [],
      "stateMutability": "nonpayable",
      "type": "function"
    },
    {
      "inputs": [
        {
          "internalType": "address",
          "name": "operator",
          "type": "address"
        },
        {
          "internalType": "bool",
          "name": "approved",
          "type": "bool"
        }
      ],
      "name": "setApprovalForAll",
      "outputs": [],
      "stateMutability": "nonpayable",
      "type": "function"
    },
    {
      "inputs": [
        {
          "internalType": "bytes4",
          "name": "interfaceId",
          "type": "bytes4"
        }
      ],
      "name": "supportsInterface",
      "outputs": [
        {
          "internalType": "bool",
          "name": "",
          "type": "bool"
        }
      ],
      "stateMutability": "view",
      "type": "function"
    },
    {
      "inputs": [],
      "name": "symbol",
      "outputs": [
        {
          "internalType": "string",
          "name": "",
          "type": "string"
        }
      ],
      "stateMutability": "view",
      "type": "function"
    },
    {
      "inputs": [
        {
          "internalType": "uint256",
          "name": "tokenId",
          "type": "uint256"
        }
      ],
      "name": "tokenURI",
      "outputs": [
        {
          "internalType": "string",
          "name": "",
          "type": "string"
        }
      ],
      "stateMutability": "view",
      "type": "function"
    },
    {
      "inputs": [
        {
          "internalType": "address",
          "name": "from",
          "type": "address"
        },
        {
          "internalType": "address",
          "name": "to",
          "type": "address"
        },
        {
          "internalType": "uint256",
          "name": "tokenId",
          "type": "uint256"
        }
      ],
      "name": "transferFrom",
      "outputs": [],
      "stateMutability": "nonpayable",
      "type": "function"
    },
    {
      "inputs": [
        {
          "internalType": "address",
          "name": "newOwner",
          "type": "address"
        }
      ],
      "name": "transferOwnership",
      "outputs": [],
      "stateMutability": "nonpayable",
      "type": "function"
    }
  ],
  "bytecode": "0x60806040523480156200001157600080fd5b506040518060400160405280600c81526020017f63616c656e6461722e65746800000000000000000000000000000000000000008152506040518060400160405280600681526020017f43414c4554480000000000000000000000000000000000000000000000000000815250816000908051906020019062000096929190620001a6565b508060019080519060200190620000af929190620001a6565b505050620000d2620000c6620000d860201b60201c565b620000e060201b60201c565b620002bb565b600033905090565b6000600660009054906101000a900473ffffffffffffffffffffffffffffffffffffffff16905081600660006101000a81548173ffffffffffffffffffffffffffffffffffffffff021916908373ffffffffffffffffffffffffffffffffffffffff1602179055508173ffffffffffffffffffffffffffffffffffffffff168173ffffffffffffffffffffffffffffffffffffffff167f8be0079c531659141344cd1fd0a4f28419497f9722a3daafe3b4186f6b6457e060405160405180910390a35050565b828054620001b49062000256565b90600052602060002090601f016020900481019282620001d8576000855562000224565b82601f10620001f357805160ff191683800117855562000224565b8280016001018555821562000224579182015b828111156200022357825182559160200191906001019062000206565b5b50905062000233919062000237565b5090565b5b808211156200025257600081600090555060010162000238565b5090565b600060028204905060018216806200026f57607f821691505b602082108114156200028657620002856200028c565b5b50919050565b7f4e487b7100000000000000000000000000000000000000000000000000000000600052602260045260246000fd5b613d0d80620002cb6000396000f3fe608060405234801561001057600080fd5b50600436106101375760003560e01c806370a08231116100b8578063a22cb4651161007c578063a22cb46514610378578063b88d4fde14610394578063c27a500d146103b0578063c87b56dd146103ce578063e985e9c5146103fe578063f2fde38b1461042e57610137565b806370a08231146102d2578063715018a61461030257806380df86ed1461030c5780638da5cb5b1461033c57806395d89b411461035a57610137565b80633f69babd116100ff5780633f69babd146101f257806342842e0e146102225780634392bb681461023e5780635298aaa61461026e5780636352211e146102a257610137565b806301ffc9a71461013c57806306fdde031461016c578063081812fc1461018a578063095ea7b3146101ba57806323b872dd146101d6575b600080fd5b61015660048036038101906101519190612976565b61044a565b60405161016391906130bb565b60405180910390f35b61017461052c565b60405161018191906130d6565b60405180910390f35b6101a4600480360381019061019f91906129c8565b6105be565b6040516101b19190613032565b60405180910390f35b6101d460048036038101906101cf919061293a565b610643565b005b6101f060048036038101906101eb9190612834565b61075b565b005b61020c600480360381019061020791906129c8565b6107bb565b60405161021991906130bb565b60405180910390f35b61023c60048036038101906102379190612834565b6108f7565b005b610258600480360381019061025391906129c8565b610917565b60405161026591906132f8565b60405180910390f35b610288600480360381019061028391906129c8565b610ad8565b604051610299959493929190613335565b60405180910390f35b6102bc60048036038101906102b791906129c8565b610bb6565b6040516102c99190613032565b60405180910390f35b6102ec60048036038101906102e791906127cf565b610c68565b6040516102f9919061331a565b60405180910390f35b61030a610d20565b005b610326600480360381019061032191906129f1565b610da8565b604051610333919061331a565b60405180910390f35b610344610f8a565b6040516103519190613032565b60405180910390f35b610362610fb4565b60405161036f91906130d6565b60405180910390f35b610392600480360381019061038d91906128fe565b611046565b005b6103ae60048036038101906103a99190612883565b61105c565b005b6103b86110be565b6040516103c59190613099565b60405180910390f35b6103e860048036038101906103e391906129c8565b61136c565b6040516103f591906130d6565b60405180910390f35b610418600480360381019061041391906127f8565b611413565b60405161042591906130bb565b60405180910390f35b610448600480360381019061044391906127cf565b6114a7565b005b60007f80ac58cd000000000000000000000000000000000000000000000000000000007bffffffffffffffffffffffffffffffffffffffffffffffffffffffff1916827bffffffffffffffffffffffffffffffffffffffffffffffffffffffff1916148061051557507f5b5e139f000000000000000000000000000000000000000000000000000000007bffffffffffffffffffffffffffffffffffffffffffffffffffffffff1916827bffffffffffffffffffffffffffffffffffffffffffffffffffffffff1916145b8061052557506105248261159f565b5b9050919050565b60606000805461053b90613679565b80601f016020809104026020016040519081016040528092919081815260200182805461056790613679565b80156105b45780601f10610589576101008083540402835291602001916105b4565b820191906000526020600020905b81548152906001019060200180831161059757829003601f168201915b5050505050905090565b60006105c982611609565b610608576040517f08c379a00000000000000000000000000000000000000000000000000000000081526004016105ff90613258565b60405180910390fd5b6004600083815260200190815260200160002060009054906101000a900473ffffffffffffffffffffffffffffffffffffffff169050919050565b600061064e82610bb6565b90508073ffffffffffffffffffffffffffffffffffffffff168373ffffffffffffffffffffffffffffffffffffffff1614156106bf576040517f08c379a00000000000000000000000000000000000000000000000000000000081526004016106b6906132b8565b60405180910390fd5b8073ffffffffffffffffffffffffffffffffffffffff166106de611675565b73ffffffffffffffffffffffffffffffffffffffff16148061070d575061070c81610707611675565b611413565b5b61074c576040517f08c379a0000000000000000000000000000000000000000000000000000000008152600401610743906131d8565b60405180910390fd5b610756838361167d565b505050565b61076c610766611675565b82611736565b6107ab576040517f08c379a00000000000000000000000000000000000000000000000000000000081526004016107a2906132d8565b60405180910390fd5b6107b6838383611814565b505050565b60006107c5611675565b73ffffffffffffffffffffffffffffffffffffffff166107e3610f8a565b73ffffffffffffffffffffffffffffffffffffffff1614610839576040517f08c379a000000000000000000000000000000000000000000000000000000000815260040161083090613278565b60405180910390fd5b60086000838152602001908152602001600020600080820160009055600182016000905560028201600061086d9190612426565b60038201600061087d9190612447565b6004820160006101000a81549073ffffffffffffffffffffffffffffffffffffffff0219169055600582016000905550506108b782611a7b565b7fdc3cb569b066460f4a22dffa05317bdcce5d3826382ed49a21f13e5fa2063d39826040516108e6919061331a565b60405180910390a160019050919050565b6109128383836040518060200160405280600081525061105c565b505050565b61091f612487565b600860008381526020019081526020016000206040518060c00160405290816000820154815260200160018201548152602001600282018054806020026020016040519081016040528092919081815260200182805480156109d657602002820191906000526020600020905b8160009054906101000a900473ffffffffffffffffffffffffffffffffffffffff1673ffffffffffffffffffffffffffffffffffffffff168152602001906001019080831161098c575b505050505081526020016003820180546109ef90613679565b80601f0160208091040260200160405190810160405280929190818152602001828054610a1b90613679565b8015610a685780601f10610a3d57610100808354040283529160200191610a68565b820191906000526020600020905b815481529060010190602001808311610a4b57829003601f168201915b505050505081526020016004820160009054906101000a900473ffffffffffffffffffffffffffffffffffffffff1673ffffffffffffffffffffffffffffffffffffffff1673ffffffffffffffffffffffffffffffffffffffff1681526020016005820154815250509050919050565b6008602052806000526040600020600091509050806000015490806001015490806003018054610b0790613679565b80601f0160208091040260200160405190810160405280929190818152602001828054610b3390613679565b8015610b805780601f10610b5557610100808354040283529160200191610b80565b820191906000526020600020905b815481529060010190602001808311610b6357829003601f168201915b5050505050908060040160009054906101000a900473ffffffffffffffffffffffffffffffffffffffff16908060050154905085565b6000806002600084815260200190815260200160002060009054906101000a900473ffffffffffffffffffffffffffffffffffffffff169050600073ffffffffffffffffffffffffffffffffffffffff168173ffffffffffffffffffffffffffffffffffffffff161415610c5f576040517f08c379a0000000000000000000000000000000000000000000000000000000008152600401610c5690613218565b60405180910390fd5b80915050919050565b60008073ffffffffffffffffffffffffffffffffffffffff168273ffffffffffffffffffffffffffffffffffffffff161415610cd9576040517f08c379a0000000000000000000000000000000000000000000000000000000008152600401610cd0906131f8565b60405180910390fd5b600360008373ffffffffffffffffffffffffffffffffffffffff1673ffffffffffffffffffffffffffffffffffffffff168152602001908152602001600020549050919050565b610d28611675565b73ffffffffffffffffffffffffffffffffffffffff16610d46610f8a565b73ffffffffffffffffffffffffffffffffffffffff1614610d9c576040517f08c379a0000000000000000000000000000000000000000000000000000000008152600401610d9390613278565b60405180910390fd5b610da66000611b98565b565b6000610db2611675565b73ffffffffffffffffffffffffffffffffffffffff16610dd0610f8a565b73ffffffffffffffffffffffffffffffffffffffff1614610e26576040517f08c379a0000000000000000000000000000000000000000000000000000000008152600401610e1d90613278565b60405180910390fd5b6000610e326007611c5e565b9050610e3e3382611c6c565b60006040518060c001604052808981526020018881526020018781526020018681526020018573ffffffffffffffffffffffffffffffffffffffff168152602001838152509050806008600084815260200190815260200160002060008201518160000155602082015181600101556040820151816002019080519060200190610ec99291906124d3565b506060820151816003019080519060200190610ee692919061255d565b5060808201518160040160006101000a81548173ffffffffffffffffffffffffffffffffffffffff021916908373ffffffffffffffffffffffffffffffffffffffff16021790555060a08201518160050155905050610f456007611c8a565b7f3017d20adc7efdca97133b296902b4c89b8464447d300861c8dc5c63334a68a681604051610f7491906132f8565b60405180910390a1819250505095945050505050565b6000600660009054906101000a900473ffffffffffffffffffffffffffffffffffffffff16905090565b606060018054610fc390613679565b80601f0160208091040260200160405190810160405280929190818152602001828054610fef90613679565b801561103c5780601f106110115761010080835404028352916020019161103c565b820191906000526020600020905b81548152906001019060200180831161101f57829003601f168201915b5050505050905090565b611058611051611675565b8383611ca0565b5050565b61106d611067611675565b83611736565b6110ac576040517f08c379a00000000000000000000000000000000000000000000000000000000081526004016110a3906132d8565b60405180910390fd5b6110b884848484611e0d565b50505050565b606060006110cc6007611c5e565b67ffffffffffffffff81111561110b577f4e487b7100000000000000000000000000000000000000000000000000000000600052604160045260246000fd5b60405190808252806020026020018201604052801561114457816020015b611131612487565b8152602001906001900390816111295790505b50905060005b6111546007611c5e565b81101561136457600860008281526020019081526020016000206040518060c001604052908160008201548152602001600182015481526020016002820180548060200260200160405190810160405280929190818152602001828054801561121257602002820191906000526020600020905b8160009054906101000a900473ffffffffffffffffffffffffffffffffffffffff1673ffffffffffffffffffffffffffffffffffffffff16815260200190600101908083116111c8575b5050505050815260200160038201805461122b90613679565b80601f016020809104026020016040519081016040528092919081815260200182805461125790613679565b80156112a45780601f10611279576101008083540402835291602001916112a4565b820191906000526020600020905b81548152906001019060200180831161128757829003601f168201915b505050505081526020016004820160009054906101000a900473ffffffffffffffffffffffffffffffffffffffff1673ffffffffffffffffffffffffffffffffffffffff1673ffffffffffffffffffffffffffffffffffffffff168152602001600582015481525050828281518110611346577f4e487b7100000000000000000000000000000000000000000000000000000000600052603260045260246000fd5b6020026020010181905250808061135c906136dc565b91505061114a565b508091505090565b606061137782611609565b6113b6576040517f08c379a00000000000000000000000000000000000000000000000000000000081526004016113ad90613298565b60405180910390fd5b60006113c0611e69565b905060008151116113e0576040518060200160405280600081525061140b565b806113ea84611e80565b6040516020016113fb92919061300e565b6040516020818303038152906040525b915050919050565b6000600560008473ffffffffffffffffffffffffffffffffffffffff1673ffffffffffffffffffffffffffffffffffffffff16815260200190815260200160002060008373ffffffffffffffffffffffffffffffffffffffff1673ffffffffffffffffffffffffffffffffffffffff16815260200190815260200160002060009054906101000a900460ff16905092915050565b6114af611675565b73ffffffffffffffffffffffffffffffffffffffff166114cd610f8a565b73ffffffffffffffffffffffffffffffffffffffff1614611523576040517f08c379a000000000000000000000000000000000000000000000000000000000815260040161151a90613278565b60405180910390fd5b600073ffffffffffffffffffffffffffffffffffffffff168173ffffffffffffffffffffffffffffffffffffffff161415611593576040517f08c379a000000000000000000000000000000000000000000000000000000000815260040161158a90613118565b60405180910390fd5b61159c81611b98565b50565b60007f01ffc9a7000000000000000000000000000000000000000000000000000000007bffffffffffffffffffffffffffffffffffffffffffffffffffffffff1916827bffffffffffffffffffffffffffffffffffffffffffffffffffffffff1916149050919050565b60008073ffffffffffffffffffffffffffffffffffffffff166002600084815260200190815260200160002060009054906101000a900473ffffffffffffffffffffffffffffffffffffffff1673ffffffffffffffffffffffffffffffffffffffff1614159050919050565b600033905090565b816004600083815260200190815260200160002060006101000a81548173ffffffffffffffffffffffffffffffffffffffff021916908373ffffffffffffffffffffffffffffffffffffffff160217905550808273ffffffffffffffffffffffffffffffffffffffff166116f083610bb6565b73ffffffffffffffffffffffffffffffffffffffff167f8c5be1e5ebec7d5bd14f71427d1e84f3dd0314c0f7b2291e5b200ac8c7c3b92560405160405180910390a45050565b600061174182611609565b611780576040517f08c379a0000000000000000000000000000000000000000000000000000000008152600401611777906131b8565b60405180910390fd5b600061178b83610bb6565b90508073ffffffffffffffffffffffffffffffffffffffff168473ffffffffffffffffffffffffffffffffffffffff1614806117fa57508373ffffffffffffffffffffffffffffffffffffffff166117e2846105be565b73ffffffffffffffffffffffffffffffffffffffff16145b8061180b575061180a8185611413565b5b91505092915050565b8273ffffffffffffffffffffffffffffffffffffffff1661183482610bb6565b73ffffffffffffffffffffffffffffffffffffffff161461188a576040517f08c379a000000000000000000000000000000000000000000000000000000000815260040161188190613138565b60405180910390fd5b600073ffffffffffffffffffffffffffffffffffffffff168273ffffffffffffffffffffffffffffffffffffffff1614156118fa576040517f08c379a00000000000000000000000000000000000000000000000000000000081526004016118f190613178565b60405180910390fd5b61190583838361202d565b61191060008261167d565b6001600360008573ffffffffffffffffffffffffffffffffffffffff1673ffffffffffffffffffffffffffffffffffffffff1681526020019081526020016000206000828254611960919061358f565b925050819055506001600360008473ffffffffffffffffffffffffffffffffffffffff1673ffffffffffffffffffffffffffffffffffffffff16815260200190815260200160002060008282546119b79190613508565b92505081905550816002600083815260200190815260200160002060006101000a81548173ffffffffffffffffffffffffffffffffffffffff021916908373ffffffffffffffffffffffffffffffffffffffff160217905550808273ffffffffffffffffffffffffffffffffffffffff168473ffffffffffffffffffffffffffffffffffffffff167fddf252ad1be2c89b69c2b068fc378daa952ba7f163c4a11628f55a4df523b3ef60405160405180910390a4611a76838383612032565b505050565b6000611a8682610bb6565b9050611a948160008461202d565b611a9f60008361167d565b6001600360008373ffffffffffffffffffffffffffffffffffffffff1673ffffffffffffffffffffffffffffffffffffffff1681526020019081526020016000206000828254611aef919061358f565b925050819055506002600083815260200190815260200160002060006101000a81549073ffffffffffffffffffffffffffffffffffffffff021916905581600073ffffffffffffffffffffffffffffffffffffffff168273ffffffffffffffffffffffffffffffffffffffff167fddf252ad1be2c89b69c2b068fc378daa952ba7f163c4a11628f55a4df523b3ef60405160405180910390a4611b9481600084612032565b5050565b6000600660009054906101000a900473ffffffffffffffffffffffffffffffffffffffff16905081600660006101000a81548173ffffffffffffffffffffffffffffffffffffffff021916908373ffffffffffffffffffffffffffffffffffffffff1602179055508173ffffffffffffffffffffffffffffffffffffffff168173ffffffffffffffffffffffffffffffffffffffff167f8be0079c531659141344cd1fd0a4f28419497f9722a3daafe3b4186f6b6457e060405160405180910390a35050565b600081600001549050919050565b611c86828260405180602001604052806000815250612037565b5050565b6001816000016000828254019250508190555050565b8173ffffffffffffffffffffffffffffffffffffffff168373ffffffffffffffffffffffffffffffffffffffff161415611d0f576040517f08c379a0000000000000000000000000000000000000000000000000000000008152600401611d0690613198565b60405180910390fd5b80600560008573ffffffffffffffffffffffffffffffffffffffff1673ffffffffffffffffffffffffffffffffffffffff16815260200190815260200160002060008473ffffffffffffffffffffffffffffffffffffffff1673ffffffffffffffffffffffffffffffffffffffff16815260200190815260200160002060006101000a81548160ff0219169083151502179055508173ffffffffffffffffffffffffffffffffffffffff168373ffffffffffffffffffffffffffffffffffffffff167f17307eab39ab6107e8899845ad3d59bd9653f200f220920489ca2b5937696c3183604051611e0091906130bb565b60405180910390a3505050565b611e18848484611814565b611e2484848484612092565b611e63576040517f08c379a0000000000000000000000000000000000000000000000000000000008152600401611e5a906130f8565b60405180910390fd5b50505050565b606060405180602001604052806000815250905090565b60606000821415611ec8576040518060400160405280600181526020017f30000000000000000000000000000000000000000000000000000000000000008152509050612028565b600082905060005b60008214611efa578080611ee3906136dc565b915050600a82611ef3919061355e565b9150611ed0565b60008167ffffffffffffffff811115611f3c577f4e487b7100000000000000000000000000000000000000000000000000000000600052604160045260246000fd5b6040519080825280601f01601f191660200182016040528015611f6e5781602001600182028036833780820191505090505b5090505b6000851461202157600182611f87919061358f565b9150600a85611f969190613725565b6030611fa29190613508565b60f81b818381518110611fde577f4e487b7100000000000000000000000000000000000000000000000000000000600052603260045260246000fd5b60200101907effffffffffffffffffffffffffffffffffffffffffffffffffffffffffffff1916908160001a905350600a8561201a919061355e565b9450611f72565b8093505050505b919050565b505050565b505050565b6120418383612229565b61204e6000848484612092565b61208d576040517f08c379a0000000000000000000000000000000000000000000000000000000008152600401612084906130f8565b60405180910390fd5b505050565b60006120b38473ffffffffffffffffffffffffffffffffffffffff16612403565b1561221c578373ffffffffffffffffffffffffffffffffffffffff1663150b7a026120dc611675565b8786866040518563ffffffff1660e01b81526004016120fe949392919061304d565b602060405180830381600087803b15801561211857600080fd5b505af192505050801561214957506040513d601f19601f82011682018060405250810190612146919061299f565b60015b6121cc573d8060008114612179576040519150601f19603f3d011682016040523d82523d6000602084013e61217e565b606091505b506000815114156121c4576040517f08c379a00000000000000000000000000000000000000000000000000000000081526004016121bb906130f8565b60405180910390fd5b805181602001fd5b63150b7a0260e01b7bffffffffffffffffffffffffffffffffffffffffffffffffffffffff1916817bffffffffffffffffffffffffffffffffffffffffffffffffffffffff191614915050612221565b600190505b949350505050565b600073ffffffffffffffffffffffffffffffffffffffff168273ffffffffffffffffffffffffffffffffffffffff161415612299576040517f08c379a000000000000000000000000000000000000000000000000000000000815260040161229090613238565b60405180910390fd5b6122a281611609565b156122e2576040517f08c379a00000000000000000000000000000000000000000000000000000000081526004016122d990613158565b60405180910390fd5b6122ee6000838361202d565b6001600360008473ffffffffffffffffffffffffffffffffffffffff1673ffffffffffffffffffffffffffffffffffffffff168152602001908152602001600020600082825461233e9190613508565b92505081905550816002600083815260200190815260200160002060006101000a81548173ffffffffffffffffffffffffffffffffffffffff021916908373ffffffffffffffffffffffffffffffffffffffff160217905550808273ffffffffffffffffffffffffffffffffffffffff16600073ffffffffffffffffffffffffffffffffffffffff167fddf252ad1be2c89b69c2b068fc378daa952ba7f163c4a11628f55a4df523b3ef60405160405180910390a46123ff60008383612032565b5050565b6000808273ffffffffffffffffffffffffffffffffffffffff163b119050919050565b508054600082559060005260206000209081019061244491906125e3565b50565b50805461245390613679565b6000825580601f106124655750612484565b601f01602090049060005260206000209081019061248391906125e3565b5b50565b6040518060c0016040528060008152602001600081526020016060815260200160608152602001600073ffffffffffffffffffffffffffffffffffffffff168152602001600081525090565b82805482825590600052602060002090810192821561254c579160200282015b8281111561254b5782518260006101000a81548173ffffffffffffffffffffffffffffffffffffffff021916908373ffffffffffffffffffffffffffffffffffffffff160217905550916020019190600101906124f3565b5b50905061255991906125e3565b5090565b82805461256990613679565b90600052602060002090601f01602090048101928261258b57600085556125d2565b82601f106125a457805160ff19168380011785556125d2565b828001600101855582156125d2579182015b828111156125d15782518255916020019190600101906125b6565b5b5090506125df91906125e3565b5090565b5b808211156125fc5760008160009055506001016125e4565b5090565b600061261361260e846133b4565b61338f565b9050808382526020820190508285602086028201111561263257600080fd5b60005b85811015612662578161264888826126e8565b845260208401935060208301925050600181019050612635565b5050509392505050565b600061267f61267a846133e0565b61338f565b90508281526020810184848401111561269757600080fd5b6126a2848285613637565b509392505050565b60006126bd6126b884613411565b61338f565b9050828152602081018484840111156126d557600080fd5b6126e0848285613637565b509392505050565b6000813590506126f781613c7b565b92915050565b600082601f83011261270e57600080fd5b813561271e848260208601612600565b91505092915050565b60008135905061273681613c92565b92915050565b60008135905061274b81613ca9565b92915050565b60008151905061276081613ca9565b92915050565b600082601f83011261277757600080fd5b813561278784826020860161266c565b91505092915050565b600082601f8301126127a157600080fd5b81356127b18482602086016126aa565b91505092915050565b6000813590506127c981613cc0565b92915050565b6000602082840312156127e157600080fd5b60006127ef848285016126e8565b91505092915050565b6000806040838503121561280b57600080fd5b6000612819858286016126e8565b925050602061282a858286016126e8565b9150509250929050565b60008060006060848603121561284957600080fd5b6000612857868287016126e8565b9350506020612868868287016126e8565b9250506040612879868287016127ba565b9150509250925092565b6000806000806080858703121561289957600080fd5b60006128a7878288016126e8565b94505060206128b8878288016126e8565b93505060406128c9878288016127ba565b925050606085013567ffffffffffffffff8111156128e657600080fd5b6128f287828801612766565b91505092959194509250565b6000806040838503121561291157600080fd5b600061291f858286016126e8565b925050602061293085828601612727565b9150509250929050565b6000806040838503121561294d57600080fd5b600061295b858286016126e8565b925050602061296c858286016127ba565b9150509250929050565b60006020828403121561298857600080fd5b60006129968482850161273c565b91505092915050565b6000602082840312156129b157600080fd5b60006129bf84828501612751565b91505092915050565b6000602082840312156129da57600080fd5b60006129e8848285016127ba565b91505092915050565b600080600080600060a08688031215612a0957600080fd5b6000612a17888289016127ba565b9550506020612a28888289016127ba565b945050604086013567ffffffffffffffff811115612a4557600080fd5b612a51888289016126fd565b935050606086013567ffffffffffffffff811115612a6e57600080fd5b612a7a88828901612790565b9250506080612a8b888289016126e8565b9150509295509295909350565b6000612aa48383612ac4565b60208301905092915050565b6000612abc8383612ed0565b905092915050565b612acd816135c3565b82525050565b612adc816135c3565b82525050565b6000612aed82613462565b612af781856134a8565b9350612b0283613442565b8060005b83811015612b33578151612b1a8882612a98565b9750612b258361348e565b925050600181019050612b06565b5085935050505092915050565b6000612b4b8261346d565b612b5581856134b9565b935083602082028501612b6785613452565b8060005b85811015612ba35784840389528151612b848582612ab0565b9450612b8f8361349b565b925060208a01995050600181019050612b6b565b50829750879550505050505092915050565b612bbe816135d5565b82525050565b6000612bcf82613478565b612bd981856134ca565b9350612be9818560208601613646565b612bf281613812565b840191505092915050565b6000612c0882613483565b612c1281856134db565b9350612c22818560208601613646565b612c2b81613812565b840191505092915050565b6000612c4182613483565b612c4b81856134ec565b9350612c5b818560208601613646565b612c6481613812565b840191505092915050565b6000612c7a82613483565b612c8481856134fd565b9350612c94818560208601613646565b80840191505092915050565b6000612cad6032836134ec565b9150612cb882613823565b604082019050919050565b6000612cd06026836134ec565b9150612cdb82613872565b604082019050919050565b6000612cf36025836134ec565b9150612cfe826138c1565b604082019050919050565b6000612d16601c836134ec565b9150612d2182613910565b602082019050919050565b6000612d396024836134ec565b9150612d4482613939565b604082019050919050565b6000612d5c6019836134ec565b9150612d6782613988565b602082019050919050565b6000612d7f602c836134ec565b9150612d8a826139b1565b604082019050919050565b6000612da26038836134ec565b9150612dad82613a00565b604082019050919050565b6000612dc5602a836134ec565b9150612dd082613a4f565b604082019050919050565b6000612de86029836134ec565b9150612df382613a9e565b604082019050919050565b6000612e0b6020836134ec565b9150612e1682613aed565b602082019050919050565b6000612e2e602c836134ec565b9150612e3982613b16565b604082019050919050565b6000612e516020836134ec565b9150612e5c82613b65565b602082019050919050565b6000612e74602f836134ec565b9150612e7f82613b8e565b604082019050919050565b6000612e976021836134ec565b9150612ea282613bdd565b604082019050919050565b6000612eba6031836134ec565b9150612ec582613c2c565b604082019050919050565b600060c083016000830151612ee86000860182612ff0565b506020830151612efb6020860182612ff0565b5060408301518482036040860152612f138282612ae2565b91505060608301518482036060860152612f2d8282612bfd565b9150506080830151612f426080860182612ac4565b5060a0830151612f5560a0860182612ff0565b508091505092915050565b600060c083016000830151612f786000860182612ff0565b506020830151612f8b6020860182612ff0565b5060408301518482036040860152612fa38282612ae2565b91505060608301518482036060860152612fbd8282612bfd565b9150506080830151612fd26080860182612ac4565b5060a0830151612fe560a0860182612ff0565b508091505092915050565b612ff98161362d565b82525050565b6130088161362d565b82525050565b600061301a8285612c6f565b91506130268284612c6f565b91508190509392505050565b60006020820190506130476000830184612ad3565b92915050565b60006080820190506130626000830187612ad3565b61306f6020830186612ad3565b61307c6040830185612fff565b818103606083015261308e8184612bc4565b905095945050505050565b600060208201905081810360008301526130b38184612b40565b905092915050565b60006020820190506130d06000830184612bb5565b92915050565b600060208201905081810360008301526130f08184612c36565b905092915050565b6000602082019050818103600083015261311181612ca0565b9050919050565b6000602082019050818103600083015261313181612cc3565b9050919050565b6000602082019050818103600083015261315181612ce6565b9050919050565b6000602082019050818103600083015261317181612d09565b9050919050565b6000602082019050818103600083015261319181612d2c565b9050919050565b600060208201905081810360008301526131b181612d4f565b9050919050565b600060208201905081810360008301526131d181612d72565b9050919050565b600060208201905081810360008301526131f181612d95565b9050919050565b6000602082019050818103600083015261321181612db8565b9050919050565b6000602082019050818103600083015261323181612ddb565b9050919050565b6000602082019050818103600083015261325181612dfe565b9050919050565b6000602082019050818103600083015261327181612e21565b9050919050565b6000602082019050818103600083015261329181612e44565b9050919050565b600060208201905081810360008301526132b181612e67565b9050919050565b600060208201905081810360008301526132d181612e8a565b9050919050565b600060208201905081810360008301526132f181612ead565b9050919050565b600060208201905081810360008301526133128184612f60565b905092915050565b600060208201905061332f6000830184612fff565b92915050565b600060a08201905061334a6000830188612fff565b6133576020830187612fff565b81810360408301526133698186612c36565b90506133786060830185612ad3565b6133856080830184612fff565b9695505050505050565b60006133996133aa565b90506133a582826136ab565b919050565b6000604051905090565b600067ffffffffffffffff8211156133cf576133ce6137e3565b5b602082029050602081019050919050565b600067ffffffffffffffff8211156133fb576133fa6137e3565b5b61340482613812565b9050602081019050919050565b600067ffffffffffffffff82111561342c5761342b6137e3565b5b61343582613812565b9050602081019050919050565b6000819050602082019050919050565b6000819050602082019050919050565b600081519050919050565b600081519050919050565b600081519050919050565b600081519050919050565b6000602082019050919050565b6000602082019050919050565b600082825260208201905092915050565b600082825260208201905092915050565b600082825260208201905092915050565b600082825260208201905092915050565b600082825260208201905092915050565b600081905092915050565b60006135138261362d565b915061351e8361362d565b9250827fffffffffffffffffffffffffffffffffffffffffffffffffffffffffffffffff0382111561355357613552613756565b5b828201905092915050565b60006135698261362d565b91506135748361362d565b92508261358457613583613785565b5b828204905092915050565b600061359a8261362d565b91506135a58361362d565b9250828210156135b8576135b7613756565b5b828203905092915050565b60006135ce8261360d565b9050919050565b60008115159050919050565b60007fffffffff0000000000000000000000000000000000000000000000000000000082169050919050565b600073ffffffffffffffffffffffffffffffffffffffff82169050919050565b6000819050919050565b82818337600083830152505050565b60005b83811015613664578082015181840152602081019050613649565b83811115613673576000848401525b50505050565b6000600282049050600182168061369157607f821691505b602082108114156136a5576136a46137b4565b5b50919050565b6136b482613812565b810181811067ffffffffffffffff821117156136d3576136d26137e3565b5b80604052505050565b60006136e78261362d565b91507fffffffffffffffffffffffffffffffffffffffffffffffffffffffffffffffff82141561371a57613719613756565b5b600182019050919050565b60006137308261362d565b915061373b8361362d565b92508261374b5761374a613785565b5b828206905092915050565b7f4e487b7100000000000000000000000000000000000000000000000000000000600052601160045260246000fd5b7f4e487b7100000000000000000000000000000000000000000000000000000000600052601260045260246000fd5b7f4e487b7100000000000000000000000000000000000000000000000000000000600052602260045260246000fd5b7f4e487b7100000000000000000000000000000000000000000000000000000000600052604160045260246000fd5b6000601f19601f8301169050919050565b7f4552433732313a207472616e7366657220746f206e6f6e20455243373231526560008201527f63656976657220696d706c656d656e7465720000000000000000000000000000602082015250565b7f4f776e61626c653a206e6577206f776e657220697320746865207a65726f206160008201527f6464726573730000000000000000000000000000000000000000000000000000602082015250565b7f4552433732313a207472616e736665722066726f6d20696e636f72726563742060008201527f6f776e6572000000000000000000000000000000000000000000000000000000602082015250565b7f4552433732313a20746f6b656e20616c7265616479206d696e74656400000000600082015250565b7f4552433732313a207472616e7366657220746f20746865207a65726f2061646460008201527f7265737300000000000000000000000000000000000000000000000000000000602082015250565b7f4552433732313a20617070726f766520746f2063616c6c657200000000000000600082015250565b7f4552433732313a206f70657261746f7220717565727920666f72206e6f6e657860008201527f697374656e7420746f6b656e0000000000000000000000000000000000000000602082015250565b7f4552433732313a20617070726f76652063616c6c6572206973206e6f74206f7760008201527f6e6572206e6f7220617070726f76656420666f7220616c6c0000000000000000602082015250565b7f4552433732313a2062616c616e636520717565727920666f7220746865207a6560008201527f726f206164647265737300000000000000000000000000000000000000000000602082015250565b7f4552433732313a206f776e657220717565727920666f72206e6f6e657869737460008201527f656e7420746f6b656e0000000000000000000000000000000000000000000000602082015250565b7f4552433732313a206d696e7420746f20746865207a65726f2061646472657373600082015250565b7f4552433732313a20617070726f76656420717565727920666f72206e6f6e657860008201527f697374656e7420746f6b656e0000000000000000000000000000000000000000602082015250565b7f4f776e61626c653a2063616c6c6572206973206e6f7420746865206f776e6572600082015250565b7f4552433732314d657461646174613a2055524920717565727920666f72206e6f60008201527f6e6578697374656e7420746f6b656e0000000000000000000000000000000000602082015250565b7f4552433732313a20617070726f76616c20746f2063757272656e74206f776e6560008201527f7200000000000000000000000000000000000000000000000000000000000000602082015250565b7f4552433732313a207472616e736665722063616c6c6572206973206e6f74206f60008201527f776e6572206e6f7220617070726f766564000000000000000000000000000000602082015250565b613c84816135c3565b8114613c8f57600080fd5b50565b613c9b816135d5565b8114613ca657600080fd5b50565b613cb2816135e1565b8114613cbd57600080fd5b50565b613cc98161362d565b8114613cd457600080fd5b5056fea2646970667358221220b24a6a0b5760b77a9284bddfe355cff4286304076e57a94f0c7e30435263af8e64736f6c63430008040033",
  "linkReferences": {},
  "deployedLinkReferences": {}
}