{
  "_format": "hh-sol-artifact-1",
  "contractName": "CalendarManager",
  "sourceName": "contracts/CalendarManager.sol",
  "abi": [
    {
      "inputs": [
        {
          "internalType": "contract Event",
          "name": "_eventContract",
          "type": "address"
        }
      ],
      "stateMutability": "nonpayable",
      "type": "constructor"
    },
    {
      "anonymous": false,
      "inputs": [
        {
          "indexed": true,
          "internalType": "address",
          "name": "by",
          "type": "address"
        },
        {
          "indexed": true,
          "internalType": "address",
          "name": "from",
          "type": "address"
        }
      ],
      "name": "InvitesAllowed",
      "type": "event"
    },
    {
      "anonymous": false,
      "inputs": [
        {
          "indexed": true,
          "internalType": "address",
          "name": "by",
          "type": "address"
        },
        {
          "indexed": true,
          "internalType": "address",
          "name": "from",
          "type": "address"
        }
      ],
      "name": "InvitesDisabled",
      "type": "event"
    },
    {
      "inputs": [
        {
          "internalType": "address",
          "name": "from",
          "type": "address"
        }
      ],
      "name": "allowInvites",
      "outputs": [],
      "stateMutability": "nonpayable",
      "type": "function"
    },
    {
      "inputs": [
        {
          "internalType": "uint256",
          "name": "eventId",
          "type": "uint256"
        }
      ],
      "name": "cancelEvent",
      "outputs": [
        {
          "internalType": "bool",
          "name": "",
          "type": "bool"
        }
      ],
      "stateMutability": "nonpayable",
      "type": "function"
    },
    {
      "inputs": [
        {
          "internalType": "address[]",
          "name": "invitees",
          "type": "address[]"
        },
        {
          "internalType": "uint256",
          "name": "startDate",
          "type": "uint256"
        },
        {
          "internalType": "uint256",
          "name": "endDate",
          "type": "uint256"
        },
        {
          "internalType": "string",
          "name": "description",
          "type": "string"
        }
      ],
      "name": "createEvent",
      "outputs": [
        {
          "internalType": "uint256",
          "name": "",
          "type": "uint256"
        }
      ],
      "stateMutability": "nonpayable",
      "type": "function"
    },
    {
      "inputs": [
        {
          "internalType": "address",
          "name": "from",
          "type": "address"
        }
      ],
      "name": "disableInvites",
      "outputs": [],
      "stateMutability": "nonpayable",
      "type": "function"
    },
    {
      "inputs": [],
      "name": "eventContract",
      "outputs": [
        {
          "internalType": "contract Event",
          "name": "",
          "type": "address"
        }
      ],
      "stateMutability": "view",
      "type": "function"
    },
    {
      "inputs": [
        {
          "internalType": "address",
          "name": "from",
          "type": "address"
        }
      ],
      "name": "isInviteAllowed",
      "outputs": [
        {
          "internalType": "bool",
          "name": "",
          "type": "bool"
        }
      ],
      "stateMutability": "view",
      "type": "function"
    },
    {
      "inputs": [
        {
          "internalType": "address",
          "name": "by",
          "type": "address"
        },
        {
          "internalType": "address",
          "name": "from",
          "type": "address"
        }
      ],
      "name": "isInviteAllowedBy",
      "outputs": [
        {
          "internalType": "bool",
          "name": "",
          "type": "bool"
        }
      ],
      "stateMutability": "view",
      "type": "function"
    },
    {
      "inputs": [
        {
          "internalType": "address",
          "name": "",
          "type": "address"
        },
        {
          "internalType": "address",
          "name": "",
          "type": "address"
        },
        {
          "internalType": "uint256",
          "name": "",
          "type": "uint256"
        },
        {
          "internalType": "bytes",
          "name": "",
          "type": "bytes"
        }
      ],
      "name": "onERC721Received",
      "outputs": [
        {
          "internalType": "bytes4",
          "name": "",
          "type": "bytes4"
        }
      ],
      "stateMutability": "pure",
      "type": "function"
    }
  ],
  "bytecode": "0x60806040523480156200001157600080fd5b506040516200172b3803806200172b833981810160405281019062000037919062000095565b806000806101000a81548173ffffffffffffffffffffffffffffffffffffffff021916908373ffffffffffffffffffffffffffffffffffffffff1602179055505062000123565b6000815190506200008f8162000109565b92915050565b600060208284031215620000a857600080fd5b6000620000b8848285016200007e565b91505092915050565b6000620000ce82620000e9565b9050919050565b6000620000e282620000c1565b9050919050565b600073ffffffffffffffffffffffffffffffffffffffff82169050919050565b6200011481620000d5565b81146200012057600080fd5b50565b6115f880620001336000396000f3fe608060405234801561001057600080fd5b50600436106100885760003560e01c8063bc5a7f9a1161005b578063bc5a7f9a14610139578063bd4524b814610155578063c5fde3b214610185578063e274fd24146101b557610088565b8063150b7a021461008d5780633f69babd146100bd578063510f92c0146100ed5780636dfe218514610109575b600080fd5b6100a760048036038101906100a29190610e0c565b6101d3565b6040516100b49190611145565b60405180910390f35b6100d760048036038101906100d29190610f89565b6101e8565b6040516100e4919061112a565b60405180910390f35b61010760048036038101906101029190610da7565b6103c4565b005b610123600480360381019061011e9190610dd0565b61046a565b604051610130919061112a565b60405180910390f35b610153600480360381019061014e9190610da7565b6104bc565b005b61016f600480360381019061016a9190610e8c565b610562565b60405161017c91906111bb565b60405180910390f35b61019f600480360381019061019a9190610da7565b61070e565b6040516101ac919061112a565b60405180910390f35b6101bd61075f565b6040516101ca9190611160565b60405180910390f35b600063150b7a0260e01b905095945050505050565b6000813373ffffffffffffffffffffffffffffffffffffffff1660008054906101000a900473ffffffffffffffffffffffffffffffffffffffff1673ffffffffffffffffffffffffffffffffffffffff16634392bb68836040518263ffffffff1660e01b815260040161025b91906111bb565b60006040518083038186803b15801561027357600080fd5b505afa158015610287573d6000803e3d6000fd5b505050506040513d6000823e3d601f19601f820116820180604052508101906102b09190610f48565b6080015173ffffffffffffffffffffffffffffffffffffffff161461030a576040517f08c379a00000000000000000000000000000000000000000000000000000000081526004016103019061117b565b60405180910390fd5b60008060009054906101000a900473ffffffffffffffffffffffffffffffffffffffff1673ffffffffffffffffffffffffffffffffffffffff16633f69babd856040518263ffffffff1660e01b815260040161036691906111bb565b602060405180830381600087803b15801561038057600080fd5b505af1158015610394573d6000803e3d6000fd5b505050506040513d601f19601f820116820180604052508101906103b89190610f1f565b90508092505050919050565b61040c600160003373ffffffffffffffffffffffffffffffffffffffff1673ffffffffffffffffffffffffffffffffffffffff16815260200190815260200160002082610783565b508073ffffffffffffffffffffffffffffffffffffffff163373ffffffffffffffffffffffffffffffffffffffff167f9f02b536eb73a4e645528845b1f63d2e6d841367c6208160e99f96049150dbfa60405160405180910390a350565b60006104b4600160008573ffffffffffffffffffffffffffffffffffffffff1673ffffffffffffffffffffffffffffffffffffffff168152602001908152602001600020836107b3565b905092915050565b610504600160003373ffffffffffffffffffffffffffffffffffffffff1673ffffffffffffffffffffffffffffffffffffffff168152602001908152602001600020826107e3565b508073ffffffffffffffffffffffffffffffffffffffff163373ffffffffffffffffffffffffffffffffffffffff167f2bfa30106f10f9208cd8b0a1b04340fa430b6cc9cda736b8debe27a46bf54c4260405160405180910390a350565b6000805b8551811015610649576105f7600160008884815181106105af577f4e487b7100000000000000000000000000000000000000000000000000000000600052603260045260246000fd5b602002602001015173ffffffffffffffffffffffffffffffffffffffff1673ffffffffffffffffffffffffffffffffffffffff168152602001908152602001600020336107b3565b610636576040517f08c379a000000000000000000000000000000000000000000000000000000000815260040161062d9061119b565b60405180910390fd5b80806106419061144d565b915050610566565b5060008060009054906101000a900473ffffffffffffffffffffffffffffffffffffffff1673ffffffffffffffffffffffffffffffffffffffff166380df86ed86868987336040518663ffffffff1660e01b81526004016106ae9594939291906111d6565b602060405180830381600087803b1580156106c857600080fd5b505af11580156106dc573d6000803e3d6000fd5b505050506040513d601f19601f820116820180604052508101906107009190610fb2565b905080915050949350505050565b6000610758600160003373ffffffffffffffffffffffffffffffffffffffff1673ffffffffffffffffffffffffffffffffffffffff168152602001908152602001600020836107b3565b9050919050565b60008054906101000a900473ffffffffffffffffffffffffffffffffffffffff1681565b60006107ab836000018373ffffffffffffffffffffffffffffffffffffffff1660001b610813565b905092915050565b60006107db836000018373ffffffffffffffffffffffffffffffffffffffff1660001b610999565b905092915050565b600061080b836000018373ffffffffffffffffffffffffffffffffffffffff1660001b6109bc565b905092915050565b6000808360010160008481526020019081526020016000205490506000811461098d576000600182610845919061130e565b905060006001866000018054905061085d919061130e565b90508181146109185760008660000182815481106108a4577f4e487b7100000000000000000000000000000000000000000000000000000000600052603260045260246000fd5b90600052602060002001549050808760000184815481106108ee577f4e487b7100000000000000000000000000000000000000000000000000000000600052603260045260246000fd5b90600052602060002001819055508387600101600083815260200190815260200160002081905550505b85600001805480610952577f4e487b7100000000000000000000000000000000000000000000000000000000600052603160045260246000fd5b600190038181906000526020600020016000905590558560010160008681526020019081526020016000206000905560019350505050610993565b60009150505b92915050565b600080836001016000848152602001908152602001600020541415905092915050565b60006109c88383610999565b610a21578260000182908060018154018082558091505060019003906000526020600020016000909190919091505582600001805490508360010160008481526020019081526020016000208190555060019050610a26565b600090505b92915050565b6000610a3f610a3a8461125c565b611237565b90508083825260208201905082856020860282011115610a5e57600080fd5b60005b85811015610a8e5781610a748882610b80565b845260208401935060208301925050600181019050610a61565b5050509392505050565b6000610aab610aa68461125c565b611237565b90508083825260208201905082856020860282011115610aca57600080fd5b60005b85811015610afa5781610ae08882610b95565b845260208401935060208301925050600181019050610acd565b5050509392505050565b6000610b17610b1284611288565b611237565b905082815260208101848484011115610b2f57600080fd5b610b3a8482856113da565b509392505050565b6000610b55610b5084611288565b611237565b905082815260208101848484011115610b6d57600080fd5b610b788482856113e9565b509392505050565b600081359050610b8f8161157d565b92915050565b600081519050610ba48161157d565b92915050565b600082601f830112610bbb57600080fd5b8135610bcb848260208601610a2c565b91505092915050565b600082601f830112610be557600080fd5b8151610bf5848260208601610a98565b91505092915050565b600081519050610c0d81611594565b92915050565b60008083601f840112610c2557600080fd5b8235905067ffffffffffffffff811115610c3e57600080fd5b602083019150836001820283011115610c5657600080fd5b9250929050565b600082601f830112610c6e57600080fd5b8135610c7e848260208601610b04565b91505092915050565b600082601f830112610c9857600080fd5b8151610ca8848260208601610b42565b91505092915050565b600060c08284031215610cc357600080fd5b610ccd60c0611237565b90506000610cdd84828501610d92565b6000830152506020610cf184828501610d92565b602083015250604082015167ffffffffffffffff811115610d1157600080fd5b610d1d84828501610bd4565b604083015250606082015167ffffffffffffffff811115610d3d57600080fd5b610d4984828501610c87565b6060830152506080610d5d84828501610b95565b60808301525060a0610d7184828501610d92565b60a08301525092915050565b600081359050610d8c816115ab565b92915050565b600081519050610da1816115ab565b92915050565b600060208284031215610db957600080fd5b6000610dc784828501610b80565b91505092915050565b60008060408385031215610de357600080fd5b6000610df185828601610b80565b9250506020610e0285828601610b80565b9150509250929050565b600080600080600060808688031215610e2457600080fd5b6000610e3288828901610b80565b9550506020610e4388828901610b80565b9450506040610e5488828901610d7d565b935050606086013567ffffffffffffffff811115610e7157600080fd5b610e7d88828901610c13565b92509250509295509295909350565b60008060008060808587031215610ea257600080fd5b600085013567ffffffffffffffff811115610ebc57600080fd5b610ec887828801610baa565b9450506020610ed987828801610d7d565b9350506040610eea87828801610d7d565b925050606085013567ffffffffffffffff811115610f0757600080fd5b610f1387828801610c5d565b91505092959194509250565b600060208284031215610f3157600080fd5b6000610f3f84828501610bfe565b91505092915050565b600060208284031215610f5a57600080fd5b600082015167ffffffffffffffff811115610f7457600080fd5b610f8084828501610cb1565b91505092915050565b600060208284031215610f9b57600080fd5b6000610fa984828501610d7d565b91505092915050565b600060208284031215610fc457600080fd5b6000610fd284828501610d92565b91505092915050565b6000610fe78383610ff3565b60208301905092915050565b610ffc81611342565b82525050565b61100b81611342565b82525050565b600061101c826112c9565b61102681856112ec565b9350611031836112b9565b8060005b838110156110625781516110498882610fdb565b9750611054836112df565b925050600181019050611035565b5085935050505092915050565b61107881611354565b82525050565b61108781611360565b82525050565b611096816113b6565b82525050565b60006110a7826112d4565b6110b181856112fd565b93506110c18185602086016113e9565b6110ca816114f4565b840191505092915050565b60006110e26022836112fd565b91506110ed82611505565b604082019050919050565b60006111056017836112fd565b915061111082611554565b602082019050919050565b611124816113ac565b82525050565b600060208201905061113f600083018461106f565b92915050565b600060208201905061115a600083018461107e565b92915050565b6000602082019050611175600083018461108d565b92915050565b60006020820190508181036000830152611194816110d5565b9050919050565b600060208201905081810360008301526111b4816110f8565b9050919050565b60006020820190506111d0600083018461111b565b92915050565b600060a0820190506111eb600083018861111b565b6111f8602083018761111b565b818103604083015261120a8186611011565b9050818103606083015261121e818561109c565b905061122d6080830184611002565b9695505050505050565b6000611241611252565b905061124d828261141c565b919050565b6000604051905090565b600067ffffffffffffffff821115611277576112766114c5565b5b602082029050602081019050919050565b600067ffffffffffffffff8211156112a3576112a26114c5565b5b6112ac826114f4565b9050602081019050919050565b6000819050602082019050919050565b600081519050919050565b600081519050919050565b6000602082019050919050565b600082825260208201905092915050565b600082825260208201905092915050565b6000611319826113ac565b9150611324836113ac565b92508282101561133757611336611496565b5b828203905092915050565b600061134d8261138c565b9050919050565b60008115159050919050565b60007fffffffff0000000000000000000000000000000000000000000000000000000082169050919050565b600073ffffffffffffffffffffffffffffffffffffffff82169050919050565b6000819050919050565b60006113c1826113c8565b9050919050565b60006113d38261138c565b9050919050565b82818337600083830152505050565b60005b838110156114075780820151818401526020810190506113ec565b83811115611416576000848401525b50505050565b611425826114f4565b810181811067ffffffffffffffff82111715611444576114436114c5565b5b80604052505050565b6000611458826113ac565b91507fffffffffffffffffffffffffffffffffffffffffffffffffffffffffffffffff82141561148b5761148a611496565b5b600182019050919050565b7f4e487b7100000000000000000000000000000000000000000000000000000000600052601160045260246000fd5b7f4e487b7100000000000000000000000000000000000000000000000000000000600052604160045260246000fd5b6000601f19601f8301169050919050565b7f4f6e6c7920746865206f776e65722063616e2063616e63656c20616e2065766560008201527f6e74000000000000000000000000000000000000000000000000000000000000602082015250565b7f496e766974656520646964206e6f7420617070726f7665000000000000000000600082015250565b61158681611342565b811461159157600080fd5b50565b61159d81611354565b81146115a857600080fd5b50565b6115b4816113ac565b81146115bf57600080fd5b5056fea26469706673582212200ab1237117e2b2c0efc96e913b6d8235c36a5bd264f98c1a455e5750b2883bd264736f6c63430008040033",
  "linkReferences": {},
  "deployedLinkReferences": {}
}